{
  "_format": "hh-sol-artifact-1",
  "contractName": "GladiatorArena",
  "sourceName": "contracts/GladiatorArena.sol",
  "abi": [
    {
      "inputs": [
        {
          "internalType": "address",
          "name": "_token",
          "type": "address"
        }
      ],
      "stateMutability": "nonpayable",
      "type": "constructor"
    },
    {
      "anonymous": false,
      "inputs": [
        {
          "indexed": true,
          "internalType": "address",
          "name": "gladiator",
          "type": "address"
        },
        {
          "indexed": false,
          "internalType": "uint256",
          "name": "underwearCount",
          "type": "uint256"
        }
      ],
      "name": "CrowdGoesWild",
      "type": "event"
    },
    {
      "anonymous": false,
      "inputs": [
        {
          "indexed": true,
          "internalType": "address",
          "name": "gladiator",
          "type": "address"
        },
        {
          "indexed": false,
          "internalType": "string",
          "name": "failDescription",
          "type": "string"
        }
      ],
      "name": "EpicFlexFail",
      "type": "event"
    },
    {
      "anonymous": false,
      "inputs": [
        {
          "indexed": true,
          "internalType": "address",
          "name": "challenger",
          "type": "address"
        },
        {
          "indexed": true,
          "internalType": "address",
          "name": "opponent",
          "type": "address"
        },
        {
          "indexed": false,
          "internalType": "address",
          "name": "winner",
          "type": "address"
        },
        {
          "indexed": false,
          "internalType": "string",
          "name": "epicMoment",
          "type": "string"
        }
      ],
      "name": "Fight",
      "type": "event"
    },
    {
      "anonymous": false,
      "inputs": [
        {
          "indexed": true,
          "internalType": "address",
          "name": "owner",
          "type": "address"
        },
        {
          "indexed": false,
          "internalType": "string",
          "name": "name",
          "type": "string"
        },
        {
          "indexed": false,
          "internalType": "string",
          "name": "battleCry",
          "type": "string"
        }
      ],
      "name": "GladiatorCreated",
      "type": "event"
    },
    {
      "anonymous": false,
      "inputs": [
        {
          "indexed": true,
          "internalType": "address",
          "name": "gladiator",
          "type": "address"
        },
        {
          "indexed": false,
          "internalType": "uint256",
          "name": "gonadLost",
          "type": "uint256"
        }
      ],
      "name": "GladiatorGotRugged",
      "type": "event"
    },
    {
      "anonymous": false,
      "inputs": [
        {
          "indexed": true,
          "internalType": "address",
          "name": "gladiator",
          "type": "address"
        },
        {
          "indexed": false,
          "internalType": "uint256",
          "name": "bonusAmount",
          "type": "uint256"
        }
      ],
      "name": "NakedBonus",
      "type": "event"
    },
    {
      "anonymous": false,
      "inputs": [
        {
          "indexed": true,
          "internalType": "address",
          "name": "previousOwner",
          "type": "address"
        },
        {
          "indexed": true,
          "internalType": "address",
          "name": "newOwner",
          "type": "address"
        }
      ],
      "name": "OwnershipTransferred",
      "type": "event"
    },
    {
      "anonymous": false,
      "inputs": [
        {
          "indexed": true,
          "internalType": "address",
          "name": "owner",
          "type": "address"
        },
        {
          "indexed": false,
          "internalType": "uint256",
          "name": "strengthGain",
          "type": "uint256"
        },
        {
          "indexed": false,
          "internalType": "uint256",
          "name": "staminaGain",
          "type": "uint256"
        },
        {
          "indexed": false,
          "internalType": "bool",
          "name": "fellWhileTraining",
          "type": "bool"
        }
      ],
      "name": "Training",
      "type": "event"
    },
    {
      "inputs": [],
      "name": "FIGHT_COOLDOWN",
      "outputs": [
        {
          "internalType": "uint256",
          "name": "",
          "type": "uint256"
        }
      ],
      "stateMutability": "view",
      "type": "function"
    },
    {
      "inputs": [],
      "name": "FIGHT_FEE",
      "outputs": [
        {
          "internalType": "uint256",
          "name": "",
          "type": "uint256"
        }
      ],
      "stateMutability": "view",
      "type": "function"
    },
    {
      "inputs": [],
      "name": "NAKED_WIN_REWARD",
      "outputs": [
        {
          "internalType": "uint256",
          "name": "",
          "type": "uint256"
        }
      ],
      "stateMutability": "view",
      "type": "function"
    },
    {
      "inputs": [],
      "name": "NORMAL_WIN_REWARD",
      "outputs": [
        {
          "internalType": "uint256",
          "name": "",
          "type": "uint256"
        }
      ],
      "stateMutability": "view",
      "type": "function"
    },
    {
      "inputs": [],
      "name": "TRAINING_COOLDOWN",
      "outputs": [
        {
          "internalType": "uint256",
          "name": "",
          "type": "uint256"
        }
      ],
      "stateMutability": "view",
      "type": "function"
    },
    {
      "inputs": [],
      "name": "TRAINING_FEE",
      "outputs": [
        {
          "internalType": "uint256",
          "name": "",
          "type": "uint256"
        }
      ],
      "stateMutability": "view",
      "type": "function"
    },
    {
      "inputs": [
        {
          "internalType": "string",
          "name": "_nickname",
          "type": "string"
        }
      ],
      "name": "addCoolNickname",
      "outputs": [],
      "stateMutability": "nonpayable",
      "type": "function"
    },
    {
      "inputs": [
        {
          "internalType": "uint256",
          "name": "amount",
          "type": "uint256"
        }
      ],
      "name": "addToRewardPool",
      "outputs": [],
      "stateMutability": "nonpayable",
      "type": "function"
    },
    {
      "inputs": [
        {
          "internalType": "address",
          "name": "user",
          "type": "address"
        }
      ],
      "name": "checkAllowance",
      "outputs": [
        {
          "internalType": "uint256",
          "name": "",
          "type": "uint256"
        }
      ],
      "stateMutability": "view",
      "type": "function"
    },
    {
      "inputs": [
        {
          "internalType": "address",
          "name": "_gladiator",
          "type": "address"
        }
      ],
      "name": "checkFlexStatus",
      "outputs": [
        {
          "internalType": "uint256",
          "name": "dailyFlexes",
          "type": "uint256"
        },
        {
          "internalType": "uint256",
          "name": "timeUntilNextFlex",
          "type": "uint256"
        },
        {
          "internalType": "string",
          "name": "catchPhrase",
          "type": "string"
        },
        {
          "internalType": "bool",
          "name": "rugPullVictim",
          "type": "bool"
        },
        {
          "internalType": "uint256",
          "name": "memeScore",
          "type": "uint256"
        }
      ],
      "stateMutability": "view",
      "type": "function"
    },
    {
      "inputs": [
        {
          "internalType": "address",
          "name": "user",
          "type": "address"
        }
      ],
      "name": "checkUserLimits",
      "outputs": [
        {
          "internalType": "uint256",
          "name": "allowance",
          "type": "uint256"
        },
        {
          "internalType": "uint256",
          "name": "balance",
          "type": "uint256"
        },
        {
          "internalType": "uint256",
          "name": "fightCost",
          "type": "uint256"
        },
        {
          "internalType": "uint256",
          "name": "trainingCost",
          "type": "uint256"
        }
      ],
      "stateMutability": "view",
      "type": "function"
    },
    {
      "inputs": [
        {
          "internalType": "string",
          "name": "_name",
          "type": "string"
        },
        {
          "internalType": "string",
          "name": "_battleCry",
          "type": "string"
        },
        {
          "internalType": "string",
          "name": "_pose",
          "type": "string"
        }
      ],
      "name": "createGladiator",
      "outputs": [],
      "stateMutability": "nonpayable",
      "type": "function"
    },
    {
      "inputs": [
        {
          "internalType": "address",
          "name": "",
          "type": "address"
        }
      ],
      "name": "crowdApplause",
      "outputs": [
        {
          "internalType": "uint256",
          "name": "",
          "type": "uint256"
        }
      ],
      "stateMutability": "view",
      "type": "function"
    },
    {
      "inputs": [
        {
          "internalType": "address",
          "name": "_opponent",
          "type": "address"
        },
        {
          "internalType": "string",
          "name": "_taunt",
          "type": "string"
        }
      ],
      "name": "fight",
      "outputs": [],
      "stateMutability": "nonpayable",
      "type": "function"
    },
    {
      "inputs": [
        {
          "internalType": "address",
          "name": "",
          "type": "address"
        }
      ],
      "name": "flexCount",
      "outputs": [
        {
          "internalType": "uint256",
          "name": "",
          "type": "uint256"
        }
      ],
      "stateMutability": "view",
      "type": "function"
    },
    {
      "inputs": [
        {
          "internalType": "address",
          "name": "_owner",
          "type": "address"
        }
      ],
      "name": "getGladiatorBasicStats",
      "outputs": [
        {
          "internalType": "string",
          "name": "name",
          "type": "string"
        },
        {
          "internalType": "uint256",
          "name": "strength",
          "type": "uint256"
        },
        {
          "internalType": "uint256",
          "name": "stamina",
          "type": "uint256"
        },
        {
          "internalType": "uint256",
          "name": "wins",
          "type": "uint256"
        },
        {
          "internalType": "uint256",
          "name": "losses",
          "type": "uint256"
        }
      ],
      "stateMutability": "view",
      "type": "function"
    },
    {
      "inputs": [
        {
          "internalType": "address",
          "name": "_owner",
          "type": "address"
        }
      ],
      "name": "getGladiatorExtraStats",
      "outputs": [
        {
          "internalType": "string",
          "name": "battleCry",
          "type": "string"
        },
        {
          "internalType": "string",
          "name": "favoritePose",
          "type": "string"
        },
        {
          "internalType": "uint256",
          "name": "fanCount",
          "type": "uint256"
        },
        {
          "internalType": "bool",
          "name": "isNaked",
          "type": "bool"
        },
        {
          "internalType": "uint256",
          "name": "underwearCount",
          "type": "uint256"
        }
      ],
      "stateMutability": "view",
      "type": "function"
    },
    {
      "inputs": [],
      "name": "getGladiatorMotto",
      "outputs": [
        {
          "internalType": "string",
          "name": "",
          "type": "string"
        }
      ],
      "stateMutability": "pure",
      "type": "function"
    },
    {
      "inputs": [
        {
          "internalType": "address",
          "name": "",
          "type": "address"
        }
      ],
      "name": "gladiators",
      "outputs": [
        {
          "internalType": "string",
          "name": "name",
          "type": "string"
        },
        {
          "internalType": "uint256",
          "name": "strength",
          "type": "uint256"
        },
        {
          "internalType": "uint256",
          "name": "stamina",
          "type": "uint256"
        },
        {
          "internalType": "uint256",
          "name": "wins",
          "type": "uint256"
        },
        {
          "internalType": "uint256",
          "name": "losses",
          "type": "uint256"
        },
        {
          "internalType": "uint256",
          "name": "lastTraining",
          "type": "uint256"
        },
        {
          "internalType": "uint256",
          "name": "lastFight",
          "type": "uint256"
        },
        {
          "internalType": "string",
          "name": "battleCry",
          "type": "string"
        },
        {
          "internalType": "string",
          "name": "favoritePose",
          "type": "string"
        },
        {
          "internalType": "uint256",
          "name": "tauntsUsed",
          "type": "uint256"
        },
        {
          "internalType": "bool",
          "name": "isNaked",
          "type": "bool"
        },
        {
          "internalType": "uint256",
          "name": "fanCount",
          "type": "uint256"
        },
        {
          "internalType": "bool",
          "name": "hasCoolNickname",
          "type": "bool"
        },
        {
          "internalType": "uint256",
          "name": "underwearCount",
          "type": "uint256"
        }
      ],
      "stateMutability": "view",
      "type": "function"
    },
    {
      "inputs": [],
      "name": "gonad",
      "outputs": [
        {
          "internalType": "contract IGonad",
          "name": "",
          "type": "address"
        }
      ],
      "stateMutability": "view",
      "type": "function"
    },
    {
      "inputs": [
        {
          "internalType": "address",
          "name": "",
          "type": "address"
        }
      ],
      "name": "hasSlippedInArena",
      "outputs": [
        {
          "internalType": "bool",
          "name": "",
          "type": "bool"
        }
      ],
      "stateMutability": "view",
      "type": "function"
    },
    {
      "inputs": [
        {
          "internalType": "address",
          "name": "",
          "type": "address"
        }
      ],
      "name": "lastWords",
      "outputs": [
        {
          "internalType": "string",
          "name": "",
          "type": "string"
        }
      ],
      "stateMutability": "view",
      "type": "function"
    },
    {
      "inputs": [],
      "name": "maxApprove",
      "outputs": [],
      "stateMutability": "nonpayable",
      "type": "function"
    },
    {
      "inputs": [],
      "name": "owner",
      "outputs": [
        {
          "internalType": "address",
          "name": "",
          "type": "address"
        }
      ],
      "stateMutability": "view",
      "type": "function"
    },
    {
      "inputs": [],
      "name": "renounceOwnership",
      "outputs": [],
      "stateMutability": "nonpayable",
      "type": "function"
    },
    {
      "inputs": [],
      "name": "rewardPool",
      "outputs": [
        {
          "internalType": "uint256",
          "name": "",
          "type": "uint256"
        }
      ],
      "stateMutability": "view",
      "type": "function"
    },
    {
      "inputs": [
        {
          "internalType": "string",
          "name": "_words",
          "type": "string"
        }
      ],
      "name": "setLastWords",
      "outputs": [],
      "stateMutability": "nonpayable",
      "type": "function"
    },
    {
      "inputs": [
        {
          "internalType": "address",
          "name": "",
          "type": "address"
        }
      ],
      "name": "throwenUnderwear",
      "outputs": [
        {
          "internalType": "uint256",
          "name": "",
          "type": "uint256"
        }
      ],
      "stateMutability": "view",
      "type": "function"
    },
    {
      "inputs": [],
      "name": "toggleNakedMode",
      "outputs": [],
      "stateMutability": "nonpayable",
      "type": "function"
    },
    {
      "inputs": [],
      "name": "token",
      "outputs": [
        {
          "internalType": "contract IERC20",
          "name": "",
          "type": "address"
        }
      ],
      "stateMutability": "view",
      "type": "function"
    },
    {
      "inputs": [],
      "name": "train",
      "outputs": [],
      "stateMutability": "nonpayable",
      "type": "function"
    },
    {
      "inputs": [
        {
          "internalType": "address",
          "name": "newOwner",
          "type": "address"
        }
      ],
      "name": "transferOwnership",
      "outputs": [],
      "stateMutability": "nonpayable",
      "type": "function"
    }
  ],
  "bytecode": "0x60803460c357601f6131f638819003918201601f19168301916001600160401b0383118484101760c85780849260209460405283398101031260c357516001600160a01b0381169081900360c35760008054336001600160a01b0319821681178355604051939290916001600160a01b0316907f8be0079c531659141344cd1fd0a4f28419497f9722a3daafe3b4186f6b6457e09080a3600180546001600160a01b0319908116831790915560028054909116909117905561311790816100df8239f35b600080fd5b634e487b7160e01b600052604160045260246000fdfe608080604052600436101561001357600080fd5b600090813560e01c90816306253c5c14612c23575080631a197a2614612b795780631a6a684014612b405780631b404fd8146125335780632829ad3c146124e45780632979d11a146123ab5780632be4f8d1146123885780632e0522b114611bd157806332b5ade814611aff5780633a94e71d14611ae3578063413efc8414611aa4578063478fbe0714611a6b5780634f872c8614611a425780635b66548b1461190157806360530d0d146117ea57806366666aa9146117cc57806368a7d79214611736578063715018a6146116dc57806377f41f72146116b95780637f192c8e1461165457806382e0fd0f146114d65780638674e997146113445780638da5cb5b1461131d578063aad13b1514610771578063b32f82e9146105e8578063b95ffbce1461051c578063d8550bce146104e3578063e0d2fdf5146104c0578063f2fde38b146103fa578063f707cc73146101c9578063fc0c546a146101a05763ff6af1641461018157600080fd5b3461019d578060031936011261019d576020604051610e108152f35b80fd5b503461019d578060031936011261019d576001546040516001600160a01b039091168152602090f35b503461019d57602036600319011261019d576004356001600160401b0381116103f6576101fa903690600401612def565b9033815260086020526040812061021660018201541515612e59565b600d810160ff8154166103b1576102666021946102586040519682610245899451809260208088019101612d8c565b8301600160fd1b60208201520185612f91565b03601f198101865285612cc7565b83516001600160401b03811161039d576102808354612c5b565b601f8111610362575b506020601f82116001146102fd5790806102bd928697600c97926102f2575b50508160011b916000199060031b1c19161790565b82555b600160ff1982541617905501805490600a82018092116102de575580f35b634e487b7160e01b83526011600452602483fd5b0151905038806102a8565b83855280852095601f198316865b81811061034a575091600c969791846001959410610331575b505050811b0182556102c0565b015160001960f88460031b161c19169055388080610324565b8383015189556001909801976020938401930161030b565b61038d9084865260208620601f840160051c81019160208510610393575b601f0160051c0190612f2a565b38610289565b9091508190610380565b634e487b7160e01b84526041600452602484fd5b60405162461bcd60e51b815260206004820152601960248201527f416c72656164792068617320636f6f6c206e69636b6e616d65000000000000006044820152606490fd5b5080fd5b503461019d57602036600319011261019d57610414612c45565b61041c613089565b6001600160a01b0316801561046c5781546001600160a01b03198116821783556001600160a01b03167f8be0079c531659141344cd1fd0a4f28419497f9722a3daafe3b4186f6b6457e08380a380f35b60405162461bcd60e51b815260206004820152602660248201527f4f776e61626c653a206e6577206f776e657220697320746865207a65726f206160448201526564647265737360d01b6064820152608490fd5b503461019d578060031936011261019d576020604051670de0b6b3a76400008152f35b503461019d57602036600319011261019d576020906040906001600160a01b0361050b612c45565b168152600383522054604051908152f35b503461019d57602036600319011261019d576001546040516323b872dd60e01b815233600480830191909152306024830152356044820181905290916020908390606490829087906001600160a01b03165af19182156105dd578392610598575b5061058a61059292612fff565b600954612e36565b60095580f35b91506020823d6020116105d5575b816105b360209383612cc7565b810103126105d15761058a6105ca61059293612ee3565b925061057d565b8280fd5b3d91506105a6565b6040513d85823e3d90fd5b503461019d57602036600319011261019d576001600160a01b0361060a612c45565b168152600860205260408120906040519061062482612c95565b61062d83612ce8565b825260018301549160208101928352600284015491604082019283526003850154916060810192835260048601549160808201928352600587015460a0830152600687015460c083015261068360078801612ce8565b60e083015261069460088801612ce8565b610100830152600987015461012083015260ff600a880154161515610140830152600b87018054906106c582612ef0565b926106d36040519485612cc7565b82845290815260208082209084015b838310610754575050505061073b96600e91610160840152600c81015461018084015260ff600d8201541615156101a084015201546101c08201525193519251915190519160405195869560a0875260a0870190612daf565b9360208601526040850152606084015260808301520390f35b60016020819261076385612ce8565b8152019201920191906106e2565b503461019d57604036600319011261019d5761078b612c45565b906024356001600160401b0381116103f6576107ab903690600401612def565b33825260086020526107c56001604084200154151561303d565b6001600160a01b03831680835260086020526040832060010154156112df5733835260086020526006604084200154610e1081018091116110665761080c90421015612f54565b600154604051636eb1769f60e11b81523360048201523060248201526001600160a01b0390911690602081604481855afa801561113f5785906112a5575b674563918244f40000915010611260576020602491604051928380926370a0823160e01b82523360048301525afa80156110b9578490611226575b674563918244f400009150106111e157600154604051636eb1769f60e11b81523360048201523060248201526001600160a01b0390911690602081604481855afa801561113f5785906111a7575b674563918244f4000091501061114a576040516370a0823160e01b8152336004820152602081602481855afa801561113f578590611100575b674563918244f400009150106110c4576040516323b872dd60e01b8152336004820152306024820152674563918244f400006044820152906020908290606490829088905af180156110b957849061107a575b6109699150612fff565b600954674563918244f40000810180911161106657600955338352600860205260408320908084526008602052604084209160018101958654151580611059575b1561101f5760068201908154610e108101809111610e1e576109ce90421015612f54565b600983016109dc8154612ed4565b9055610a1a865198610a15600a86019a610a1560ff8d541693846000146110175760ff60145b1694610fce575b54600289015490612f41565b612e36565b90610a2e6001870154600288015490612f41565b90610a8c610a7e60405160208101904282523360601b60408201526bffffffffffffffffffffffff198560601b16605482015260488152610a70606882612cc7565b519020946032860690612e36565b9260328560801c0690612e36565b6060921115610ecb57505060038301610aa58154612ed4565b905560048501610ab58154612ed4565b905560ff33985416600014610ebd5767a688906bd8b000005b8060095410610e785760015460405163a9059cbb60e01b81523360048201526024810183905290602090829060449082908d906001600160a01b03165af18015610e6d57610e32575b50600954908103908111610e1e5790600a91600955604051610ba760016012838b610b62600b610b4a602085018d612f91565b6a0103232b9ba3937bcb2b2160ad1b8152018d612f91565b71207768696c652073637265616d696e67202760701b8152610b8d8251809360208785019101612d8c565b01602760f81b838201520301601e19810184520182612cc7565b936064820660328110610dbd575b50505b0615610d0e575b85967f3aafba30f21a4013dac72733b9cc8dd780b6a0fd5d4632d86f40d81db0c6ca77914290556040519060018060a01b031681526040602082015280610c0b33946040830190612daf565b0390a3610c45610c5360018060a01b0360025416926040519283916b02490353ab9ba103932b5ba160a51b6020840152602c830190612f91565b03601f198101835282612cc7565b813b15610d095783610c8681938293604051948580948193630c17353760e31b8352602060048401526024830190612daf565b03925af1610cf1575b50506002546001600160a01b0316803b15610ced576040516330a4144960e11b8152602060048201529183918391829084908290610cd1906024830190612daf565b03925af1610cdc5750f35b81610ce691612cc7565b61019d5780f35b5050fd5b81610cfb91612cc7565b610d06578138610c8f565b50fd5b505050fd5b6001600160a01b03871680875260036020526040872080546064810191908210610da9575580875260046020526040872080549060038201809211610da957917f3aafba30f21a4013dac72733b9cc8dd780b6a0fd5d4632d86f40d81db0c6ca779391899a93557f4eb5c2f5610e1030922e4a2ec5651df6ea39faaa055c3bb17ea92bce05b66cc5602060405160038152a291509650610bbf565b634e487b7160e01b89526011600452602489fd5b601490600c8301610dce8154612ed4565b905510610ddc575b80610bb5565b600e01610de98154612ed4565b8091556040519081527f4eb5c2f5610e1030922e4a2ec5651df6ea39faaa055c3bb17ea92bce05b66cc560203392a238610dd6565b634e487b7160e01b88526011600452602488fd5b6020813d602011610e65575b81610e4b60209383612cc7565b81010312610e6157610e5c90612ee3565b610b17565b8880fd5b3d9150610e3e565b6040513d8b823e3d90fd5b60405162461bcd60e51b815260206004820152601860248201527f496e73756666696369656e742072657761726420706f6f6c00000000000000006044820152606490fd5b678ac7230489e80000610ace565b9193600491995060038701610ee08154612ed4565b905501610eed8154612ed4565b90559686602060018060a01b036001541660446040518094819363a9059cbb60e01b83528a6004840152678ac7230489e8000060248401525af18015610fc357610f83575b50600a90610f436040519182612cc7565b602781527f4c6f737420616674657220736c697070696e67206f6e207468656972206f776e6020820152662073776561742160c81b604082015292610bb8565b6020813d602011610fbb575b81610f9c60209383612cc7565b81010312610fb75790610fb0600a92612ee3565b5090610f32565b8780fd5b3d9150610f8f565b6040513d8a823e3d90fd5b6040518581527f09818cd35ac482291596dffcd4f3a2af56962c12f548abb5b634984359f901a760203392a2338d52600460205260408d206110108154612ed4565b9055610a09565b60ff8d610a02565b60405162461bcd60e51b8152602060048201526012602482015271496e76616c696420676c61646961746f727360701b6044820152606490fd5b50600184015415156109aa565b634e487b7160e01b84526011600452602484fd5b506020813d6020116110b1575b8161109460209383612cc7565b810103126110ad576110a861096991612ee3565b61095f565b8380fd5b3d9150611087565b6040513d86823e3d90fd5b60405162461bcd60e51b8152602060048201526014602482015273496e73756666696369656e742062616c616e636560601b6044820152606490fd5b506020813d602011611137575b8161111a60209383612cc7565b8101031261113257674563918244f40000905161090c565b600080fd5b3d915061110d565b6040513d87823e3d90fd5b60405162461bcd60e51b815260206004820152602f60248201527f496e73756666696369656e7420616c6c6f77616e63652e2043616c6c206d617860448201526e105c1c1c9bdd994a0a48199a5c9cdd608a1b6064820152608490fd5b506020813d6020116111d9575b816111c160209383612cc7565b8101031261113257674563918244f4000090516108d3565b3d91506111b4565b60405162461bcd60e51b815260206004820152601c60248201527f496e73756666696369656e7420474f4e414420666f72206669676874000000006044820152606490fd5b506020813d602011611258575b8161124060209383612cc7565b8101031261113257674563918244f400009051610885565b3d9150611233565b60405162461bcd60e51b815260206004820152601c60248201527f496e73756666696369656e7420666967687420616c6c6f77616e6365000000006044820152606490fd5b506020813d6020116112d7575b816112bf60209383612cc7565b8101031261113257674563918244f40000905161084a565b3d91506112b2565b60405162461bcd60e51b815260206004820152601660248201527513dc1c1bdb995b9d08191bd95cdb89dd08195e1a5cdd60521b6044820152606490fd5b503461019d578060031936011261019d57546040516001600160a01b039091168152602090f35b503461019d57602036600319011261019d576001600160a01b03611366612c45565b1681526008602052604081206040519061137f82612c95565b61138881612ce8565b825260018101546020830152600281015460408301526003810154606083015260048101546080830152600581015460a0830152600681015460c08301526113d260078201612ce8565b60e083019081526113e560088301612ce8565b926101008101938452600983015461012082015260ff600a840154169461014082019515158652600b840180549061141c82612ef0565b9261142a6040519485612cc7565b82845290815260208082209084015b8383106114b95761149789896101c08d6114a58c8c8c610160820152600e600c870154968761018084015260ff600d8201541615156101a084015201549485910152519451915115159160405196879660a0885260a0880190612daf565b908682036020880152612daf565b926040850152606084015260808301520390f35b6001602081926114c885612ce8565b815201920192019190611439565b503461019d57602036600319011261019d576004356001600160401b0381116103f657611507903690600401612def565b9060648251116116195733815260056020526040812082516001600160401b038111611605576115378254612c5b565b601f81116115d5575b506020601f821160011461157657819084956115719495926102f25750508160011b916000199060031b1c19161790565b905580f35b82845280842090601f198316855b8181106115bd575095836001959697106115a4575b505050811b01905580f35b015160001960f88460031b161c19169055388080611599565b9192602060018192868b015181550194019201611584565b6115ff9083855260208520601f840160051c8101916020851061039357601f0160051c0190612f2a565b38611540565b634e487b7160e01b83526041600452602483fd5b60405162461bcd60e51b81526020600482015260136024820152724c61737420776f72647320746f6f206c6f6e6760681b6044820152606490fd5b503461019d578060031936011261019d57506116b5604051611677604082612cc7565b601981527f474f4e4144206d616b657320796f75207374726f6e67657221000000000000006020820152604051918291602083526020830190612daf565b0390f35b503461019d578060031936011261019d576020604051674563918244f400008152f35b503461019d578060031936011261019d576116f5613089565b80546001600160a01b03198116825581906001600160a01b03167f8be0079c531659141344cd1fd0a4f28419497f9722a3daafe3b4186f6b6457e08280a380f35b503461019d578060031936011261019d57338152600860205260ff600a6040832061176660018201541515612e59565b01805460ff1981169083161560ff1617815554166117815780f35b338152600460205260408120805490600582018092116102de5755604051600581527f4eb5c2f5610e1030922e4a2ec5651df6ea39faaa055c3bb17ea92bce05b66cc560203392a280f35b503461019d578060031936011261019d576020600954604051908152f35b503461019d57602036600319011261019d576001600160a01b0361180c612c45565b16815260086020526040902061182181612ce8565b6001820154600283015492600381015490600481015460058201546006830154946007840161184f90612ce8565b61185b60088601612ce8565b91600986015497600a87015460ff1694600c88015496600d89015460ff1698600e0154996040519d8e809e6101c082526101c0820161189991612daf565b9660208201526040015260608d015260808c015260a08b015260c08a015288810360e08a01526118c891612daf565b8781036101008901526118da91612daf565b94610120870152151561014086015261016085015215156101808401526101a08301520390f35b503461019d57602036600319011261019d5761191b612c45565b600154604051636eb1769f60e11b81526001600160a01b038381166004830152306024830152909116929091602083604481875afa928315611a37578293611a02575b506040516370a0823160e01b81526001600160a01b03909116600482015292602090849060249082905afa9081156119f657906119c3575b608092506040519182526020820152674563918244f400006040820152670de0b6b3a76400006060820152f35b506020823d6020116119ee575b816119dd60209383612cc7565b810103126111325760809151611996565b3d91506119d0565b604051903d90823e3d90fd5b9092506020813d602011611a2f575b81611a1e60209383612cc7565b81010312611132575191602061195e565b3d9150611a11565b6040513d84823e3d90fd5b503461019d578060031936011261019d576002546040516001600160a01b039091168152602090f35b503461019d57602036600319011261019d576020906040906001600160a01b03611a93612c45565b168152600683522054604051908152f35b503461019d57602036600319011261019d5760209060ff906040906001600160a01b03611acf612c45565b168152600784522054166040519015158152f35b503461019d578060031936011261019d576020604051603c8152f35b503461019d578060031936011261019d5760015460405163095ea7b360e01b81523060048201526000196024820152906020908290604490829086906001600160a01b03165af1908115611a37578291611b97575b5015611b5d5780f35b60405162461bcd60e51b815260206004820152601260248201527113585e08185c1c1c9bdd994819985a5b195960721b6044820152606490fd5b90506020813d602011611bc9575b81611bb260209383612cc7565b810103126103f657611bc390612ee3565b38611b54565b3d9150611ba5565b503461019d57606036600319011261019d576004356001600160401b0381116103f657611c02903690600401612def565b6024356001600160401b0381116105d157611c21903690600401612def565b6044356001600160401b0381116110ad57611c40903690600401612def565b913384526008602052600160408520015461234b578151156123065760408051611c6a8282612cc7565b60018152601f198201865b8181106122f55750508151611c8a8382612cc7565b60118152704e6f6f62206f6620746865204172656e6160781b6020820152611cb182612f07565b52611cbb81612f07565b50815194611cc886612c95565b838652603260208701526032838701528660608701528660808701528660a08701528660c08701528460e087015261010086015285610120860152856101408601526101608501526001610180850152846101a0850152846101c0850152338552600860205280852084518051906001600160401b0382116122e157611d4e8354612c5b565b601f81116122b1575b50602090601f831160011461224957611d8792918991836102f25750508160011b916000199060031b1c19161790565b81555b60208501516001820155818501516002820155606085015160038201556080850151600482015560a0850151600582015560c085015160068201556007810160e08601518051906001600160401b03821161210f57611de98354612c5b565b601f8111612219575b50602090601f83116001146121b657611e2292918a91836102f25750508160011b916000199060031b1c19161790565b90555b600881016101008601518051906001600160401b03821161210f57611e4a8354612c5b565b601f8111612186575b50602090601f831160011461212357611e8392918a91836102f25750508160011b916000199060031b1c19161790565b90555b6101208501516009820155611eb16101408601511515600a83019060ff801983541691151516179055565b600b81016101608601519081519168010000000000000000831161210f578154838355808410612095575b506020019088526020882088915b838310611f785750505050600e6101c0866101807feb5a1ad2b7e00a890a5886ee8c285ddd9915c121fbc238cb40600d8b97e29cd497980151600c850155611f486101a08201511515600d86019060ff801983541691151516179055565b0151910155611f72611f638251938385948552840190612daf565b82810360208401523395612daf565b0390a280f35b80518051906001600160401b038211612081578b611f968554612c5b565b601f8111612051575b50506020908c601f8411600114611fe8578360019592946020948796611fd994926102f25750508160011b916000199060031b1c19161790565b85555b01920192019190611eea565b9190601f198416868452828420935b8181106120395750936020936001969387969383889510612020575b505050811b018555611fdc565b015160001960f88460031b161c19169055388080612013565b92936020600181928786015181550195019301611ff7565b6020828761207a945220601f850160051c8101916020861061039357601f0160051c0190612f2a565b8b38611f9f565b634e487b7160e01b8c52604160045260248cfd5b828a528360208b2091820191015b8181106120b05750611edc565b808b6120be60019354612c5b565b806120cc575b5050016120a3565b601f811184146120e35750508b81555b8b386120c4565b83601f602084866120fe965220920160051c82019101612f2a565b808c528b60208120818355556120dc565b634e487b7160e01b89526041600452602489fd5b838a52818a209190601f1984168b5b81811061216e5750908460019594939210612155575b505050811b019055611e86565b015160001960f88460031b161c19169055388080612148565b92936020600181928786015181550195019301612132565b6121b090848b5260208b20601f850160051c8101916020861061039357601f0160051c0190612f2a565b38611e53565b838a52818a209190601f1984168b5b81811061220157509084600195949392106121e8575b505050811b019055611e25565b015160001960f88460031b161c191690553880806121db565b929360206001819287860151815501950193016121c5565b61224390848b5260208b20601f850160051c8101916020861061039357601f0160051c0190612f2a565b38611df2565b91908389528089209089935b601f1984168510612296576001945083601f1981161061227d575b505050811b018155611d8a565b015160001960f88460031b161c19169055388080612270565b81810151835560209485019460019093019290910190612255565b6122db90848a5260208a20601f850160051c8101916020861061039357601f0160051c0190612f2a565b38611d57565b634e487b7160e01b88526041600452602488fd5b806060602080938601015201611c75565b60405162461bcd60e51b815260206004820152601e60248201527f4e656564206120626174746c65206372792c20796f7520636f776172642100006044820152606490fd5b60405162461bcd60e51b815260206004820152601560248201527420b63932b0b23c903430b99033b630b234b0ba37b960591b6044820152606490fd5b503461019d578060031936011261019d576020604051678ac7230489e800008152f35b503461019d57602036600319011261019d576123c5612c45565b60025460405163132b9d1b60e31b81526001600160a01b0392831660048201529291829184916024918391165afa9081156119f65780918193829083809361243d575b505061242c906040519586958652602086015260a0604086015260a0850190612daf565b911515606084015260808301520390f35b945094505050503d8082843e6124538184612cc7565b82019160a0818403126103f65780519060208101519260408201516001600160401b0381116103f657820185601f820112156103f65780519161249583612dd4565b966124a36040519889612cc7565b8388526020848401011161019d5750906124c39160208088019101612d8c565b61242c60806124d460608401612ee3565b9201519293949192919038612408565b503461019d57602036600319011261019d576116b59061251f906040906001600160a01b03612511612c45565b168152600560205220612ce8565b604051918291602083526020830190612daf565b503461019d578060031936011261019d57338152600860205261255e6001604083200154151561303d565b33815260086020526005604082200154603c810180911161297f5761258590421015612e94565b600154604051636eb1769f60e11b81523360048201523060248201526001600160a01b0390911690602081604481855afa80156105dd578390612b06575b670de0b6b3a7640000915010612ac1576020602491604051928380926370a0823160e01b82523360048301525afa8015611a37578290612a87575b670de0b6b3a7640000915010612a4257600154604051636eb1769f60e11b81523360048201523060248201526001600160a01b0390911690602081604481855afa80156105dd578390612a08575b670de0b6b3a764000091501061114a576040516370a0823160e01b8152336004820152602081602481855afa80156105dd5783906129ce575b670de0b6b3a76400009150106110c4576040516323b872dd60e01b8152336004820152306024820152670de0b6b3a76400006044820152906020908290606490829086905af18015611a37578290612993575b6126e29150612fff565b600954670de0b6b3a7640000810180911161297f57600955338152600860205260408120906001820161271781541515612e59565b600583018054603c81018091116110665761273490421015612e94565b6002546001600160a01b0316803b156110ad57838091600460405180948193632aef263b60e11b83525af1908161296b575b5061295757815460028111612943575b505b600560405160208101904282523360601b60408201526034815261279d605482612cc7565b5190200615906005420694600186019384871161292f57600543066001810186818311610da95786979899829761286c575b5050505090816127e28760029454612e36565b606481101561286357905b55016127fa838254612e36565b606481101561285a57905b5542905533845260066020526040842061281f8154612ed4565b9055604051928352602083015260408201527f10c249fa4ba480a983f0d8824915be552b02215e2aa7c478d575c6c6d18cbb6960603392a280f35b50606490612805565b506064906127ed565b9092985060039193965001809111610e1e57600390960180911161291b579060029193338852600760205260408820600160ff1982541617905560405160208152602860208201527f536c6970706564206f6e20612062616e616e61207768696c6520646f696e6720604082015267707573682d75707360c01b60608201527f6317902520fa6e3bcc732d0d035c59833312c3ec57fc8589e9e9d3449a7ac1b060803392a290913880806127cf565b634e487b7160e01b87526011600452602487fd5b634e487b7160e01b86526011600452602486fd5b600119810190811161106657825538612776565b815460028101809111611066578255612778565b8461297891959295612cc7565b9238612766565b634e487b7160e01b82526011600452602482fd5b506020813d6020116129c6575b816129ad60209383612cc7565b810103126103f6576129c16126e291612ee3565b6126d8565b3d91506129a0565b506020813d602011612a00575b816129e860209383612cc7565b810103126105d157670de0b6b3a76400009051612685565b3d91506129db565b506020813d602011612a3a575b81612a2260209383612cc7565b810103126105d157670de0b6b3a7640000905161264c565b3d9150612a15565b60405162461bcd60e51b815260206004820152601f60248201527f496e73756666696369656e7420474f4e414420666f7220747261696e696e67006044820152606490fd5b506020813d602011612ab9575b81612aa160209383612cc7565b810103126103f657670de0b6b3a764000090516125fe565b3d9150612a94565b60405162461bcd60e51b815260206004820152601f60248201527f496e73756666696369656e7420747261696e696e6720616c6c6f77616e6365006044820152606490fd5b506020813d602011612b38575b81612b2060209383612cc7565b810103126105d157670de0b6b3a764000090516125c3565b3d9150612b13565b503461019d57602036600319011261019d576020906040906001600160a01b03612b68612c45565b168152600483522054604051908152f35b503461019d57602036600319011261019d57612bd06020612b98612c45565b600154604051636eb1769f60e11b81526001600160a01b03928316600482015230602482015293849290911690829081906044820190565b03915afa908115611a37578291612bed575b602082604051908152f35b90506020813d602011612c1b575b81612c0860209383612cc7565b810103126103f657602091505138612be2565b3d9150612bfb565b9050346103f657816003193601126103f6578067a688906bd8b0000060209252f35b600435906001600160a01b038216820361113257565b90600182811c92168015612c8b575b6020831014612c7557565b634e487b7160e01b600052602260045260246000fd5b91607f1691612c6a565b6101e081019081106001600160401b03821117612cb157604052565b634e487b7160e01b600052604160045260246000fd5b90601f801991011681019081106001600160401b03821117612cb157604052565b9060405191826000825492612cfc84612c5b565b8084529360018116908115612d6a5750600114612d23575b50612d2192500383612cc7565b565b90506000929192526020600020906000915b818310612d4e575050906020612d219282010138612d14565b6020919350806001915483858901015201910190918492612d35565b905060209250612d2194915060ff191682840152151560051b82010138612d14565b60005b838110612d9f5750506000910152565b8181015183820152602001612d8f565b90602091612dc881518092818552858086019101612d8c565b601f01601f1916010190565b6001600160401b038111612cb157601f01601f191660200190565b81601f8201121561113257803590612e0682612dd4565b92612e146040519485612cc7565b8284526020838301011161113257816000926020809301838601378301015290565b91908201809211612e4357565b634e487b7160e01b600052601160045260246000fd5b15612e6057565b60405162461bcd60e51b815260206004820152600c60248201526b27379033b630b234b0ba37b960a11b6044820152606490fd5b15612e9b57565b60405162461bcd60e51b81526020600482015260116024820152702a3930b4b734b7339031b7b7b63237bbb760791b6044820152606490fd5b6000198114612e435760010190565b5190811515820361113257565b6001600160401b038111612cb15760051b60200190565b805115612f145760200190565b634e487b7160e01b600052603260045260246000fd5b818110612f35575050565b60008155600101612f2a565b81810292918115918404141715612e4357565b15612f5b57565b60405162461bcd60e51b815260206004820152600e60248201526d2334b3b43a1031b7b7b63237bbb760911b6044820152606490fd5b60009291815491612fa183612c5b565b9260018116908115612fec5750600114612fba57505050565b909192935060005260206000206000905b838210612fd85750500190565b600181602092548486015201910190612fcb565b60ff191683525050811515909102019150565b1561300657565b60405162461bcd60e51b815260206004820152600f60248201526e151c985b9cd9995c8819985a5b1959608a1b6044820152606490fd5b1561304457565b60405162461bcd60e51b815260206004820152601860248201527f437265617465206120676c61646961746f7220666972737400000000000000006044820152606490fd5b6000546001600160a01b0316330361309d57565b606460405162461bcd60e51b815260206004820152602060248201527f4f776e61626c653a2063616c6c6572206973206e6f7420746865206f776e65726044820152fdfea2646970667358221220c5f21c87f5394cf6e351e761b2af0f74cffd9fe4c68a791c90e47ef724bd86d364736f6c634300081c0033",
  "linkReferences": {},
  "deployedLinkReferences": {}
}