{
  "_format": "hh-sol-artifact-1",
  "contractName": "Gonad",
  "sourceName": "contracts/Gonad.sol",
  "abi": [
    {
      "inputs": [],
      "stateMutability": "nonpayable",
      "type": "constructor"
    },
    {
      "anonymous": false,
      "inputs": [
        {
          "indexed": true,
          "internalType": "address",
          "name": "claimer",
          "type": "address"
        }
      ],
      "name": "Airdrop",
      "type": "event"
    },
    {
      "anonymous": false,
      "inputs": [
        {
          "indexed": true,
          "internalType": "address",
          "name": "owner",
          "type": "address"
        },
        {
          "indexed": true,
          "internalType": "address",
          "name": "spender",
          "type": "address"
        },
        {
          "indexed": false,
          "internalType": "uint256",
          "name": "value",
          "type": "uint256"
        }
      ],
      "name": "Approval",
      "type": "event"
    },
    {
      "anonymous": false,
      "inputs": [
        {
          "indexed": true,
          "internalType": "address",
          "name": "flexer",
          "type": "address"
        },
        {
          "indexed": false,
          "internalType": "string",
          "name": "reason",
          "type": "string"
        }
      ],
      "name": "FlexFailed",
      "type": "event"
    },
    {
      "anonymous": false,
      "inputs": [
        {
          "indexed": true,
          "internalType": "address",
          "name": "chad",
          "type": "address"
        },
        {
          "indexed": false,
          "internalType": "uint256",
          "name": "flexPower",
          "type": "uint256"
        }
      ],
      "name": "GigaChad",
      "type": "event"
    },
    {
      "anonymous": false,
      "inputs": [
        {
          "indexed": true,
          "internalType": "address",
          "name": "poster",
          "type": "address"
        },
        {
          "indexed": false,
          "internalType": "string",
          "name": "message",
          "type": "string"
        }
      ],
      "name": "MemePosted",
      "type": "event"
    },
    {
      "anonymous": false,
      "inputs": [
        {
          "indexed": true,
          "internalType": "address",
          "name": "previousOwner",
          "type": "address"
        },
        {
          "indexed": true,
          "internalType": "address",
          "name": "newOwner",
          "type": "address"
        }
      ],
      "name": "OwnershipTransferred",
      "type": "event"
    },
    {
      "anonymous": false,
      "inputs": [
        {
          "indexed": true,
          "internalType": "address",
          "name": "buyer",
          "type": "address"
        },
        {
          "indexed": false,
          "internalType": "uint256",
          "name": "amount",
          "type": "uint256"
        }
      ],
      "name": "Presale",
      "type": "event"
    },
    {
      "anonymous": false,
      "inputs": [
        {
          "indexed": true,
          "internalType": "address",
          "name": "victim",
          "type": "address"
        },
        {
          "indexed": false,
          "internalType": "string",
          "name": "lastWords",
          "type": "string"
        }
      ],
      "name": "Rugpull",
      "type": "event"
    },
    {
      "anonymous": false,
      "inputs": [
        {
          "indexed": true,
          "internalType": "address",
          "name": "from",
          "type": "address"
        },
        {
          "indexed": true,
          "internalType": "address",
          "name": "to",
          "type": "address"
        },
        {
          "indexed": false,
          "internalType": "uint256",
          "name": "value",
          "type": "uint256"
        }
      ],
      "name": "Transfer",
      "type": "event"
    },
    {
      "stateMutability": "payable",
      "type": "fallback"
    },
    {
      "inputs": [],
      "name": "AIRDROP_ALLOCATION",
      "outputs": [
        {
          "internalType": "uint256",
          "name": "",
          "type": "uint256"
        }
      ],
      "stateMutability": "view",
      "type": "function"
    },
    {
      "inputs": [],
      "name": "AIRDROP_AMOUNT",
      "outputs": [
        {
          "internalType": "uint256",
          "name": "",
          "type": "uint256"
        }
      ],
      "stateMutability": "view",
      "type": "function"
    },
    {
      "inputs": [],
      "name": "ARENA_ALLOCATION",
      "outputs": [
        {
          "internalType": "uint256",
          "name": "",
          "type": "uint256"
        }
      ],
      "stateMutability": "view",
      "type": "function"
    },
    {
      "inputs": [],
      "name": "DAILY_FLEX_LIMIT",
      "outputs": [
        {
          "internalType": "uint256",
          "name": "",
          "type": "uint256"
        }
      ],
      "stateMutability": "view",
      "type": "function"
    },
    {
      "inputs": [],
      "name": "GONAD_PER_MON",
      "outputs": [
        {
          "internalType": "uint256",
          "name": "",
          "type": "uint256"
        }
      ],
      "stateMutability": "view",
      "type": "function"
    },
    {
      "inputs": [],
      "name": "MAX_PRESALE_PER_USER",
      "outputs": [
        {
          "internalType": "uint256",
          "name": "",
          "type": "uint256"
        }
      ],
      "stateMutability": "view",
      "type": "function"
    },
    {
      "inputs": [],
      "name": "PRESALE_ALLOCATION",
      "outputs": [
        {
          "internalType": "uint256",
          "name": "",
          "type": "uint256"
        }
      ],
      "stateMutability": "view",
      "type": "function"
    },
    {
      "inputs": [],
      "name": "PRESALE_PRICE",
      "outputs": [
        {
          "internalType": "uint256",
          "name": "",
          "type": "uint256"
        }
      ],
      "stateMutability": "view",
      "type": "function"
    },
    {
      "inputs": [],
      "name": "TOTAL_SUPPLY",
      "outputs": [
        {
          "internalType": "uint256",
          "name": "",
          "type": "uint256"
        }
      ],
      "stateMutability": "view",
      "type": "function"
    },
    {
      "inputs": [
        {
          "internalType": "address",
          "name": "owner",
          "type": "address"
        },
        {
          "internalType": "address",
          "name": "spender",
          "type": "address"
        }
      ],
      "name": "allowance",
      "outputs": [
        {
          "internalType": "uint256",
          "name": "",
          "type": "uint256"
        }
      ],
      "stateMutability": "view",
      "type": "function"
    },
    {
      "inputs": [
        {
          "internalType": "address",
          "name": "spender",
          "type": "address"
        },
        {
          "internalType": "uint256",
          "name": "amount",
          "type": "uint256"
        }
      ],
      "name": "approve",
      "outputs": [
        {
          "internalType": "bool",
          "name": "",
          "type": "bool"
        }
      ],
      "stateMutability": "nonpayable",
      "type": "function"
    },
    {
      "inputs": [],
      "name": "arenaAddress",
      "outputs": [
        {
          "internalType": "address",
          "name": "",
          "type": "address"
        }
      ],
      "stateMutability": "view",
      "type": "function"
    },
    {
      "inputs": [
        {
          "internalType": "address",
          "name": "account",
          "type": "address"
        }
      ],
      "name": "balanceOf",
      "outputs": [
        {
          "internalType": "uint256",
          "name": "",
          "type": "uint256"
        }
      ],
      "stateMutability": "view",
      "type": "function"
    },
    {
      "inputs": [],
      "name": "buyPresale",
      "outputs": [],
      "stateMutability": "payable",
      "type": "function"
    },
    {
      "inputs": [
        {
          "internalType": "address",
          "name": "",
          "type": "address"
        }
      ],
      "name": "catchPhrases",
      "outputs": [
        {
          "internalType": "string",
          "name": "",
          "type": "string"
        }
      ],
      "stateMutability": "view",
      "type": "function"
    },
    {
      "inputs": [],
      "name": "claimAirdrop",
      "outputs": [],
      "stateMutability": "nonpayable",
      "type": "function"
    },
    {
      "inputs": [],
      "name": "decimals",
      "outputs": [
        {
          "internalType": "uint8",
          "name": "",
          "type": "uint8"
        }
      ],
      "stateMutability": "view",
      "type": "function"
    },
    {
      "inputs": [
        {
          "internalType": "address",
          "name": "spender",
          "type": "address"
        },
        {
          "internalType": "uint256",
          "name": "subtractedValue",
          "type": "uint256"
        }
      ],
      "name": "decreaseAllowance",
      "outputs": [
        {
          "internalType": "bool",
          "name": "",
          "type": "bool"
        }
      ],
      "stateMutability": "nonpayable",
      "type": "function"
    },
    {
      "inputs": [
        {
          "internalType": "address",
          "name": "",
          "type": "address"
        }
      ],
      "name": "flexCount",
      "outputs": [
        {
          "internalType": "uint256",
          "name": "",
          "type": "uint256"
        }
      ],
      "stateMutability": "view",
      "type": "function"
    },
    {
      "inputs": [],
      "name": "flexOnThem",
      "outputs": [],
      "stateMutability": "nonpayable",
      "type": "function"
    },
    {
      "inputs": [
        {
          "internalType": "address",
          "name": "flexer",
          "type": "address"
        }
      ],
      "name": "getFlexStatus",
      "outputs": [
        {
          "internalType": "uint256",
          "name": "dailyFlexes",
          "type": "uint256"
        },
        {
          "internalType": "uint256",
          "name": "timeUntilNextFlex",
          "type": "uint256"
        },
        {
          "internalType": "string",
          "name": "catchPhrase",
          "type": "string"
        },
        {
          "internalType": "bool",
          "name": "rugPullVictim",
          "type": "bool"
        },
        {
          "internalType": "uint256",
          "name": "memeScore",
          "type": "uint256"
        }
      ],
      "stateMutability": "view",
      "type": "function"
    },
    {
      "inputs": [
        {
          "internalType": "address",
          "name": "",
          "type": "address"
        }
      ],
      "name": "hasBeenRugged",
      "outputs": [
        {
          "internalType": "bool",
          "name": "",
          "type": "bool"
        }
      ],
      "stateMutability": "view",
      "type": "function"
    },
    {
      "inputs": [
        {
          "internalType": "address",
          "name": "",
          "type": "address"
        }
      ],
      "name": "hasClaimedAirdrop",
      "outputs": [
        {
          "internalType": "bool",
          "name": "",
          "type": "bool"
        }
      ],
      "stateMutability": "view",
      "type": "function"
    },
    {
      "inputs": [
        {
          "internalType": "address",
          "name": "spender",
          "type": "address"
        },
        {
          "internalType": "uint256",
          "name": "addedValue",
          "type": "uint256"
        }
      ],
      "name": "increaseAllowance",
      "outputs": [
        {
          "internalType": "bool",
          "name": "",
          "type": "bool"
        }
      ],
      "stateMutability": "nonpayable",
      "type": "function"
    },
    {
      "inputs": [
        {
          "internalType": "address",
          "name": "_arena",
          "type": "address"
        }
      ],
      "name": "initializeArena",
      "outputs": [],
      "stateMutability": "nonpayable",
      "type": "function"
    },
    {
      "inputs": [
        {
          "internalType": "address",
          "name": "",
          "type": "address"
        }
      ],
      "name": "lastFlexTime",
      "outputs": [
        {
          "internalType": "uint256",
          "name": "",
          "type": "uint256"
        }
      ],
      "stateMutability": "view",
      "type": "function"
    },
    {
      "inputs": [
        {
          "internalType": "address",
          "name": "",
          "type": "address"
        }
      ],
      "name": "memeCount",
      "outputs": [
        {
          "internalType": "uint256",
          "name": "",
          "type": "uint256"
        }
      ],
      "stateMutability": "view",
      "type": "function"
    },
    {
      "inputs": [],
      "name": "name",
      "outputs": [
        {
          "internalType": "string",
          "name": "",
          "type": "string"
        }
      ],
      "stateMutability": "view",
      "type": "function"
    },
    {
      "inputs": [],
      "name": "owner",
      "outputs": [
        {
          "internalType": "address",
          "name": "",
          "type": "address"
        }
      ],
      "stateMutability": "view",
      "type": "function"
    },
    {
      "inputs": [
        {
          "internalType": "string",
          "name": "meme",
          "type": "string"
        }
      ],
      "name": "postMeme",
      "outputs": [],
      "stateMutability": "nonpayable",
      "type": "function"
    },
    {
      "inputs": [],
      "name": "renounceOwnership",
      "outputs": [],
      "stateMutability": "nonpayable",
      "type": "function"
    },
    {
      "inputs": [
        {
          "internalType": "address",
          "name": "arena",
          "type": "address"
        },
        {
          "internalType": "uint256",
          "name": "amount",
          "type": "uint256"
        }
      ],
      "name": "sendToArena",
      "outputs": [],
      "stateMutability": "nonpayable",
      "type": "function"
    },
    {
      "inputs": [
        {
          "internalType": "string",
          "name": "phrase",
          "type": "string"
        }
      ],
      "name": "setCatchPhrase",
      "outputs": [],
      "stateMutability": "nonpayable",
      "type": "function"
    },
    {
      "inputs": [],
      "name": "symbol",
      "outputs": [
        {
          "internalType": "string",
          "name": "",
          "type": "string"
        }
      ],
      "stateMutability": "view",
      "type": "function"
    },
    {
      "inputs": [],
      "name": "theSecretOfGONAD",
      "outputs": [
        {
          "internalType": "string",
          "name": "",
          "type": "string"
        }
      ],
      "stateMutability": "pure",
      "type": "function"
    },
    {
      "inputs": [],
      "name": "totalAirdropClaimed",
      "outputs": [
        {
          "internalType": "uint256",
          "name": "",
          "type": "uint256"
        }
      ],
      "stateMutability": "view",
      "type": "function"
    },
    {
      "inputs": [],
      "name": "totalPresaleSold",
      "outputs": [
        {
          "internalType": "uint256",
          "name": "",
          "type": "uint256"
        }
      ],
      "stateMutability": "view",
      "type": "function"
    },
    {
      "inputs": [],
      "name": "totalSupply",
      "outputs": [
        {
          "internalType": "uint256",
          "name": "",
          "type": "uint256"
        }
      ],
      "stateMutability": "view",
      "type": "function"
    },
    {
      "inputs": [
        {
          "internalType": "address",
          "name": "to",
          "type": "address"
        },
        {
          "internalType": "uint256",
          "name": "amount",
          "type": "uint256"
        }
      ],
      "name": "transfer",
      "outputs": [
        {
          "internalType": "bool",
          "name": "",
          "type": "bool"
        }
      ],
      "stateMutability": "nonpayable",
      "type": "function"
    },
    {
      "inputs": [
        {
          "internalType": "address",
          "name": "from",
          "type": "address"
        },
        {
          "internalType": "address",
          "name": "to",
          "type": "address"
        },
        {
          "internalType": "uint256",
          "name": "amount",
          "type": "uint256"
        }
      ],
      "name": "transferFrom",
      "outputs": [
        {
          "internalType": "bool",
          "name": "",
          "type": "bool"
        }
      ],
      "stateMutability": "nonpayable",
      "type": "function"
    },
    {
      "inputs": [
        {
          "internalType": "address",
          "name": "newOwner",
          "type": "address"
        }
      ],
      "name": "transferOwnership",
      "outputs": [],
      "stateMutability": "nonpayable",
      "type": "function"
    },
    {
      "inputs": [],
      "name": "withdrawTMON",
      "outputs": [],
      "stateMutability": "nonpayable",
      "type": "function"
    },
    {
      "stateMutability": "payable",
      "type": "receive"
    }
  ],
  "bytecode": "0x60806040523461042057610011610425565b610019610425565b81516001600160401b03811161034b57610034600354610456565b601f81116103d1575b50602092601f821160011461036c5792819293600092610361575b50508160011b916000199060031b1c1916176003555b80516001600160401b03811161034b57610089600454610456565b601f81116102f1575b50602091601f821160011461028d57918192600092610282575b50508160011b916000199060031b1c1916176004555b60058054336001600160a01b03198216811790925560405191906001600160a01b03167f8be0079c531659141344cd1fd0a4f28419497f9722a3daafe3b4186f6b6457e0600080a33315610240576002546a396c41bd9e54ada3800000810180911161022a5760025533600052600060205260406000206a396c41bd9e54ada380000081540190556040516a396c41bd9e54ada3800000815260007fddf252ad1be2c89b69c2b068fc378daa952ba7f163c4a11628f55a4df523b3ef60203393a3336000526008602052604060002061019b8154610456565b601f8111610208575b50603e7f49206372656174656420474f4e41442c20626f77206265666f7265206d65210001905560405161232981527f6a0eefd02bc37d8935d8f9f9482fe885835d9ecd60d27de29d13ffefeb8dda9460203392a2604051611d7790816104a88239f35b6102249082600052601f6020600020910160051c810190610490565b816101a4565b634e487b7160e01b600052601160045260246000fd5b62461bcd60e51b815260206004820152601f60248201527f45524332303a206d696e7420746f20746865207a65726f2061646472657373006044820152606490fd5b0151905038806100ac565b601f198216926004600052806000209160005b8581106102d9575083600195106102c0575b505050811b016004556100c2565b015160001960f88460031b161c191690553880806102b2565b919260206001819286850151815501940192016102a0565b600460005261033b907f8a35acfbc15ff81a39ae7d344fd709f28e8600b4aa8c65c6b64bfe7fe36bd19b601f840160051c81019160208510610341575b601f0160051c0190610490565b38610092565b909150819061032e565b634e487b7160e01b600052604160045260246000fd5b015190503880610058565b601f198216936003600052806000209160005b8681106103b957508360019596106103a0575b505050811b0160035561006e565b015160001960f88460031b161c19169055388080610392565b9192602060018192868501518155019401920161037f565b600360005261041a907fc2575a0e9e593c00f959f8c92f12db2869c3395a3b0502d05e2516446f71f85b601f840160051c8101916020851061034157601f0160051c0190610490565b3861003d565b600080fd5b60408051919082016001600160401b0381118382101761034b57604052600582526411d3d3905160da1b6020830152565b90600182811c92168015610486575b602083101461047057565b634e487b7160e01b600052602260045260246000fd5b91607f1691610465565b81811061049b575050565b6000815560010161049056fe60806040526004361015610010575b005b60003560e01c806306478f001461183b57806306fdde0314611793578063095ea7b31461176d578063111eb195146116f057806318160ddd146116d25780631ad77047146116b557806323b872dd146115f75780632b5b6872146115d4578063313ce567146115b857806331601fa11461157e578063395093511461152c578063478fbe07146114f257806355de4c761461126d5780635b88349d146110c957806360b9a9b814610eca5780636148289214610cd357806362dc6e2114610cb057806364a5d1e714610c8a57806365d254aa14610c5057806370a0823114610c16578063715018a614610bb95780638da5cb5b14610b905780639028836414610b72578063902d55a514610b4c5780639522ebf314610b0d57806395d89b4114610a285780639605330b14610a0a578063995ce8d8146109325780639fcdec61146107ba578063a457c2d714610708578063a9059cbb146106d7578063c1d22b8c146106bb578063c7a746bb14610622578063c7b5a48c146105fc578063cb4b4ff9146105d6578063dd62ed3e14610585578063e476eda61461054b578063f12568451461033c578063f2fde38b14610274578063f4cdda3614610235578063f93c5cb81461020c5763fa701a7c0361000e5734610207576000366003190112610207576020604051683635c9adc5dea000008152f35b600080fd5b3461020757600036600319011261020757600e546040516001600160a01b039091168152602090f35b34610207576020366003190112610207576001600160a01b03610256611875565b16600052600b602052602060ff604060002054166040519015158152f35b346102075760203660031901126102075761028d611875565b610295611cc9565b6001600160a01b031680156102e857600580546001600160a01b0319811683179091556001600160a01b03167f8be0079c531659141344cd1fd0a4f28419497f9722a3daafe3b4186f6b6457e0600080a3005b60405162461bcd60e51b815260206004820152602660248201527f4f776e61626c653a206e6577206f776e657220697320746865207a65726f206160448201526564647265737360d01b6064820152608490fd5b3461020757602036600319011261020757610355611875565b61035d611cc9565b600e54906001600160a01b038216610512576001600160a01b03166001600160a01b0319919091168117600e5533156104bf57801561046e573360005260006020526040600020546a1cb620decf2a56d1c00000811061041a573360005260006020526a1cb620decf2a56d1bfffff190160406000205580600052600060205260406000206a1cb620decf2a56d1c0000081540190556040516a1cb620decf2a56d1c000008152600080516020611d2283398151915260203392a3005b60405162461bcd60e51b815260206004820152602660248201527f45524332303a207472616e7366657220616d6f756e7420657863656564732062604482015265616c616e636560d01b6064820152608490fd5b60405162461bcd60e51b815260206004820152602360248201527f45524332303a207472616e7366657220746f20746865207a65726f206164647260448201526265737360e81b6064820152608490fd5b60405162461bcd60e51b815260206004820152602560248201527f45524332303a207472616e736665722066726f6d20746865207a65726f206164604482015264647265737360d81b6064820152608490fd5b60405162461bcd60e51b8152602060048201526011602482015270105c995b9848185b1c9958591e481cd95d607a1b6044820152606490fd5b34610207576020366003190112610207576001600160a01b0361056c611875565b16600052600a6020526020604060002054604051908152f35b346102075760403660031901126102075761059e611875565b6105a661188b565b6001600160a01b039182166000908152600160209081526040808320949093168252928352819020549051908152f35b346102075760003660031901126102075760206040516a05be0692f63baaf6c000008152f35b346102075760003660031901126102075760206040516a113a13b8e2b300e44000008152f35b346102075760003660031901126102075761063b611cc9565b600080808060018060a01b036005541647905af13d156106b6573d61065f816119e9565b9061066d60405192836118db565b8152600060203d92013e5b1561067f57005b60405162461bcd60e51b815260206004820152600f60248201526e151c985b9cd9995c8819985a5b1959608a1b6044820152606490fd5b610678565b34610207576000366003190112610207576020604051602a8152f35b346102075760403660031901126102075760206106fe6106f5611875565b60243590611a8a565b6040519015158152f35b3461020757604036600319011261020757610721611875565b60243590336000526001602052604060002060018060a01b038216600052602052604060002054918083106107675761075c92039033611b4c565b602060405160018152f35b60405162461bcd60e51b815260206004820152602560248201527f45524332303a2064656372656173656420616c6c6f77616e63652062656c6f77604482015264207a65726f60d81b6064820152608490fd5b600036600319011261020757670de0b6b3a76400003410610901576103e834023481046103e814341517156108eb57683635c9adc5dea0000081116108a657600c546a113a13b8e2b300e44000006108128383611a6e565b1161086b578161082191611a6e565b600c5560055461083d90829033906001600160a01b0316611c54565b6040519081527f10fcc92ce3ae296b6d2813de054ab2cf2d6dd59a1eed235681bc8bf6c36a5cb760203392a2005b60405162461bcd60e51b8152602060048201526013602482015272141c995cd85b194818d85c081c995858da1959606a1b6044820152606490fd5b60405162461bcd60e51b815260206004820152601760248201527f4d6178203130303020474f4e41442070657220757365720000000000000000006044820152606490fd5b634e487b7160e01b600052601160045260246000fd5b60405162461bcd60e51b815260206004820152600960248201526826b4b710189026a7a760b91b6044820152606490fd5b34610207576020366003190112610207576001600160a01b03610953611875565b16806000526007602052604060002054610e1081018082116108eb57600083815260066020526040902054914282116109f65750506000915b806000526008602052604060002081600052600960205260ff6040600020541691600052600a6020526109e56109c7604060002054926118fd565b6040519586958652602086015260a0604086015260a08501906119c4565b911515606084015260808301520390f35b429003610e10019081116108eb579161098c565b34610207576000366003190112610207576020600d54604051908152f35b34610207576000366003190112610207576040516000600454610a4a816118a1565b8084529060018116908115610ae95750600114610a8a575b610a8683610a72818503826118db565b6040519182916020835260208301906119c4565b0390f35b600460009081527f8a35acfbc15ff81a39ae7d344fd709f28e8600b4aa8c65c6b64bfe7fe36bd19b939250905b808210610acf57509091508101602001610a72610a62565b919260018160209254838588010152019101909291610ab7565b60ff191660208086019190915291151560051b84019091019150610a729050610a62565b34610207576020366003190112610207576001600160a01b03610b2e611875565b166000526009602052602060ff604060002054166040519015158152f35b346102075760003660031901126102075760206040516a396c41bd9e54ada38000008152f35b34610207576000366003190112610207576020600c54604051908152f35b34610207576000366003190112610207576005546040516001600160a01b039091168152602090f35b3461020757600036600319011261020757610bd2611cc9565b600580546001600160a01b031981169091556000906001600160a01b03167f8be0079c531659141344cd1fd0a4f28419497f9722a3daafe3b4186f6b6457e08280a3005b34610207576020366003190112610207576001600160a01b03610c37611875565b1660005260006020526020604060002054604051908152f35b346102075760403660031901126102075761000e610c6c611875565b610c74611cc9565b60055460243591906001600160a01b0316611c54565b346102075760003660031901126102075760206040516a1cb620decf2a56d1c000008152f35b34610207576000366003190112610207576020604051670de0b6b3a76400008152f35b3461020757610ce136611a05565b608c815111610e855733600052600a60205260456040600020541015610e4057600a9033600052816020526040600020610d1b8154611a7b565b9055604051602081527f31479226b66dc6663c74625509242dfcc7fd0ccb2a42a46c029342d6667baba4339180610d5560208201866119c4565b0390a2604051610d8d6040826020810194428652610d7c81518092602086860191016119a1565b81010301601f1981018352826118db565b5190200615610d9857005b3315610dfb57600254680246ddf9797668000081018091116108eb576002553360005260006020526040600020680246ddf979766800008154019055604051680246ddf9797668000081526000600080516020611d2283398151915260203393a3005b60405162461bcd60e51b815260206004820152601f60248201527f45524332303a206d696e7420746f20746865207a65726f2061646472657373006044820152606490fd5b60405162461bcd60e51b815260206004820152601b60248201527f596f7527766520706f7374656420656e6f756768206372696e676500000000006044820152606490fd5b60405162461bcd60e51b815260206004820152601860248201527f5369722c2074686973206973206e6f74205477697474657200000000000000006044820152606490fd5b3461020757610ed836611a05565b606481511161108457336000526000602052683635c9adc5dea000006040600020541061102d573360005260086020526040600020815167ffffffffffffffff811161101757610f2882546118a1565b601f8111610fcf575b50602092601f8211600114610f6f5792819293600092610f64575b5050600019600383901b1c191660019190911b179055005b015190508380610f4c565b601f1982169383600052806000209160005b868110610fb75750836001959610610f9e575b505050811b019055005b015160001960f88460031b161c19169055838080610f94565b91926020600181928685015181550194019201610f81565b826000526020600020601f830160051c8101916020841061100d575b601f0160051c01905b8181106110015750610f31565b60008155600101610ff4565b9091508190610feb565b634e487b7160e01b600052604160045260246000fd5b60405162461bcd60e51b815260206004820152602960248201527f4e656564206174206c65617374203130303020474f4e414420746f20626520746044820152681a1a5cc818985cd95960ba1b6064820152608490fd5b60405162461bcd60e51b815260206004820152601c60248201527f546f6f206c6f6e672c206b6565702069742073686f7274206b696e67000000006044820152606490fd5b346102075760003660031901126102075733600052600b60205260ff6040600020541661123657600d54678ac7230489e8000081018091116108eb576a05be0692f63baaf6c00000106111fe5733600052600b6020526040600020600160ff19825416179055600d54678ac7230489e8000081018091116108eb57600d556005546001600160a01b031680156104bf57331561046e57806000526000602052604060002054678ac7230489e80000811061041a57816000526000602052678ac7230489e7ffff19016040600020553360005260006020526040600020678ac7230489e80000815401905560405190678ac7230489e800008252600080516020611d2283398151915260203393a3337f84b8d6a5d5e1034bc8734d8fff0d20ab52702355d302ba88515a311d8ce0dd7d600080a2005b60405162461bcd60e51b815260206004820152601060248201526f105a5c991c9bdc08199a5b9a5cda195960821b6044820152606490fd5b60405162461bcd60e51b815260206004820152600f60248201526e105b1c9958591e4818db185a5b5959608a1b6044820152606490fd5b3461020757600036600319011261020757336000526007602052604060002054610e1081018091116108eb5742106114ad57336000526006602052602a604060002054101561146857336000526000602052604060002054801561142b576040805142602082019081523360601b6bffffffffffffffffffffffff19169282019290925261130881605481015b03601f1981018352826118db565b519020066103e88110156113995750604051602081526015602082015274446f20796f75206576656e206c6966742062726f3f60581b60408201527f0844d8b0fea99ed6fab253396d9dd0b3493c477b7e89da80c6577944745f5f6b60603392a25b33600052600660205260406000206113828154611a7b565b905533600052600760205242604060002055600080f35b6040519081527f6a0eefd02bc37d8935d8f9f9482fe885835d9ecd60d27de29d13ffefeb8dda9460203392a23315610dfb576002546803bd913e6c1df4000081018091116108eb5760025533600052600060205260406000206803bd913e6c1df4000081540190556040516803bd913e6c1df4000081526000600080516020611d2283398151915260203393a361136a565b60405162461bcd60e51b815260206004820152601560248201527409cde408e9e9c828840e8de40ccd8caf040eed2e8d605b1b6044820152606490fd5b60405162461bcd60e51b815260206004820152601960248201527f596f7520666c6578656420746f6f206d75636820746f646179000000000000006044820152606490fd5b60405162461bcd60e51b815260206004820152601a60248201527f42726f206368696c6c20776974682074686520666c6578696e670000000000006044820152606490fd5b34610207576020366003190112610207576001600160a01b03611513611875565b1660005260066020526020604060002054604051908152f35b346102075760403660031901126102075761075c611548611875565b336000526001602052604060002060018060a01b03821660005260205261157760406000206024359054611a6e565b9033611b4c565b34610207576020366003190112610207576001600160a01b0361159f611875565b1660005260076020526020604060002054604051908152f35b3461020757600036600319011261020757602060405160128152f35b34610207576000366003190112610207576020604051678ac7230489e800008152f35b3461020757606036600319011261020757611610611875565b61161861188b565b6001600160a01b0382166000908152600160208181526040808420338552909152909120549260443592918401611654575b61075c9350611c54565b8284106116705761166b8361075c95033383611b4c565b61164a565b60405162461bcd60e51b815260206004820152601d60248201527f45524332303a20696e73756666696369656e7420616c6c6f77616e63650000006044820152606490fd5b346102075760003660031901126102075760206040516103e88152f35b34610207576000366003190112610207576020600254604051908152f35b3461020757600036600319011261020757610a866040516117126060826118db565b603481527f546865207265616c20474f4e4144207761732074686520667269656e6473207760208201527365206d61646520616c6f6e67207468652077617960601b60408201526040519182916020835260208301906119c4565b346102075760403660031901126102075761075c611789611875565b6024359033611b4c565b346102075760003660031901126102075760405160006003546117b5816118a1565b8084529060018116908115610ae957506001146117dc57610a8683610a72818503826118db565b600360009081527fc2575a0e9e593c00f959f8c92f12db2869c3395a3b0502d05e2516446f71f85b939250905b80821061182157509091508101602001610a72610a62565b919260018160209254838588010152019101909291611809565b34610207576020366003190112610207576001600160a01b0361185c611875565b166000526008602052610a86610a7260406000206118fd565b600435906001600160a01b038216820361020757565b602435906001600160a01b038216820361020757565b90600182811c921680156118d1575b60208310146118bb57565b634e487b7160e01b600052602260045260246000fd5b91607f16916118b0565b90601f8019910116810190811067ffffffffffffffff82111761101757604052565b9060405191826000825492611911846118a1565b808452936001811690811561197f5750600114611938575b50611936925003836118db565b565b90506000929192526020600020906000915b8183106119635750509060206119369282010138611929565b602091935080600191548385890101520191019091849261194a565b90506020925061193694915060ff191682840152151560051b82010138611929565b60005b8381106119b45750506000910152565b81810151838201526020016119a4565b906020916119dd815180928185528580860191016119a1565b601f01601f1916010190565b67ffffffffffffffff811161101757601f01601f191660200190565b60206003198201126102075760043567ffffffffffffffff8111610207578160238201121561020757806004013590611a3d826119e9565b92611a4b60405194856118db565b828452602483830101116102075781600092602460209301838601378301015290565b919082018092116108eb57565b60001981146108eb5760010190565b604560646040516020810190611ac3816112fa334286909160349282526bffffffffffffffffffffffff199060601b1660208201520190565b5190200614611adc5790611ad79133611c54565b600190565b611ad7913360005260096020526040600020600160ff1982541617905560405160208152600c60208201526b476f7420474f4e414427642160a01b60408201527f1427a855ff6a3ca37bec5df5ddcc04e608f7e2b83e11911130476b61f941637360603392a260011c9033611c54565b6001600160a01b0316908115611c03576001600160a01b0316918215611bb35760207f8c5be1e5ebec7d5bd14f71427d1e84f3dd0314c0f7b2291e5b200ac8c7c3b925918360005260018252604060002085600052825280604060002055604051908152a3565b60405162461bcd60e51b815260206004820152602260248201527f45524332303a20617070726f766520746f20746865207a65726f206164647265604482015261737360f01b6064820152608490fd5b60405162461bcd60e51b8152602060048201526024808201527f45524332303a20617070726f76652066726f6d20746865207a65726f206164646044820152637265737360e01b6064820152608490fd5b6001600160a01b03169081156104bf576001600160a01b031691821561046e5781600052600060205260406000205481811061041a5781600080516020611d228339815191529260209285600052600084520360406000205584600052600082526040600020818154019055604051908152a3565b6005546001600160a01b03163303611cdd57565b606460405162461bcd60e51b815260206004820152602060248201527f4f776e61626c653a2063616c6c6572206973206e6f7420746865206f776e65726044820152fdfeddf252ad1be2c89b69c2b068fc378daa952ba7f163c4a11628f55a4df523b3efa2646970667358221220603fe4b8db5076002c987f9a715dbd7fd2192114d86a1af75a1148b5cb08cd6c64736f6c634300081c0033",
  "linkReferences": {},
  "deployedLinkReferences": {}
}